:1000000093C10000C2C10000C0C10000BEC1000019
:10001000BCC10000BAC10000B8C10000B6C10000F8
:10002000B4C100000C94590A0C94590A0C94590A52
:10003000ACC100000C943C09A8C10000A6C100009E
:10004000A4C10000A2C10000A0C100009EC1000028
:100050009CC100009AC1000098C100000C94120CD1
:1000600094C100000C94230A0C94FA098EC100007C
:100070008CC100008AC1000088C1000086C1000058
:1000800084C1000082C1000080C100007EC1000068
:100090000C94C4090C949B0978C100000C94D70AF5
:1000A00074C1000072C1000070C100006EC1000088
:1000B0006CC100006AC1000068C1000066C1000098
:1000C00064C1000062C1000060C100005EC10000A8
:1000D0005CC100005AC1000058C1000056C10000B8
:1000E00054C1000021022402130217021D025B0208
:1000F00028022C02320236023A024002440248022E
:100100005B024E025202560200407A10F35A00A0DF
:10011000724E18090010A5D4E80000E876481700D0
:1001200000E40B54020000CA9A3B000000E1F50510
:10013000000080969800000040420F000000A0865A
:1001400001000000102700000000E803000000008C
:100150006400000000000A00000000000100000030
:1001600000002C76D888DC674F0823DFC1DFAE594A
:10017000E1B1B796E5E3E453C63AE651997696E8DD
:10018000E6C28426EB898C9B62ED407C6FFCEFBC61
:100190009C9F40F2BAA56FA5F490055A2AF75C938C
:1001A0006B6CF9676DC11BFCE0E40D47FEF520E6C2
:1001B000B500D0ED902E0300943577050080841EA5
:1001C000080000204E0A000000C80C333333330F00
:1001D000986E12831141EF8D2114893BE65516CF9D
:1001E000FEE6DB18D1844B381BF77C1D901DA4BBA9
:1001F000E424203284725E228100C9F124ECA1E55E
:100200003D270200002100240027002A002D003095
:1002100000330001010000040107010A0100000A87
:100220000B02090C0D0E080703040100000000007A
:1002300000000000000000000000000000000000BE
:10024000000000000000000000121110000000007B
:10025000000000000000000000000000000000009E
:10026000000000000020002300260029002C002FA1
:100270000032000001000003010601090100002214
:1002800000250028002B002E003100340002010060
:1002900000050108010B010505050507050808080B
:1002A00008020202020A0A08080404040401010107
:1002B000010101010103030303030303030407070F
:1002C000070C0C0C0C0C0C0C0C02020202060606AD
:1002D00006060606060B0B0B0B0B0B0B0B01021095
:1002E0002020080810204010204080020102010850
:1002F0000402010102040810204080804020100800
:100300000402018004020180402010080402010858
:1003100004020101020408102040800102040810B8
:10032000204080006312B41311241FBECFEFD1E22E
:10033000DEBFCDBF00E00CBF25E0A4E4B2E001C009
:100340001D92A633B207E1F712E0A0E0B2E0E6E5C5
:10035000F5E300E00BBF02C007900D92A434B10793
:10036000D9F711E0C3E9D1E000E006C02197010907
:10037000802FFE010E947D18C239D10780E0080756
:10038000A9F70E945C0C0C949A1A3ACECF92DF9295
:10039000EF92FF92CF93DF93B091C503882311F0C2
:1003A000AB2F01C0A0E08091C60390E0880F991F99
:1003B0008D599D4FC090CB03D090CC03E090CD03DE
:1003C000F090CE0320E030E0FC01C591D491E881AB
:1003D000EB23A90160E070E0EA130CC02F5F3F4FF0
:1003E0004C155D056E057F0578F33FEF2FEF8FEF1E
:1003F0009FEF03C0322F252FCB01632F722FDF9188
:10040000CF91FF90EF90DF90CF90089590E0FC01A6
:100410003197E231F10508F04EC08827EE58FF4FC2
:100420008F4F0C947D18809180008F7703C080914E
:1004300080008F7D80938000089580918000877F69
:10044000F9CF84B58F7702C084B58F7D84BD0895C0
:100450008091B0008F7703C08091B0008F7D809332
:10046000B0000895809190008F7707C08091900030
:100470008F7D03C080919000877F809390000895C6
:100480008091A0008F7707C08091A0008F7D03C06E
:100490008091A000877F8093A00008958091200123
:1004A0008F7707C0809120018F7D03C0809120014C
:1004B000877F8093200108958F929F92AF92BF9281
:1004C000CF92DF92EF92FF920F931F93CF93E09121
:1004D0004604F09147043196C0E000E010E0980136
:1004E000CC24CA94DC2CEC2CF12C40E050E0BA0176
:1004F0008C2F90E0E817F907DCF1880F991F880F1F
:10050000991FDC01AF52BC4F17968D909D90AD9016
:10051000BC901A978C149D04AE04BF0434F4179653
:10052000CD90DD90ED90FC901A97DC01AF52BC4F5E
:1005300017968D909D90AD90BC901A97081519054F
:100540002A053B0534F417960D911D912D913C9190
:100550001A97DC01AF52BC4F17968D919D910D906B
:10056000BC91A02D480F591F6A1F7B1FCF5FC0CFC2
:100570004C195D096E097F09CB01BA01601B710B33
:10058000820B930BCF911F910F91FF90EF90DF9013
:10059000CF90BF90AF909F908F9008950F931F932F
:1005A000CF93DF93EC01FB01448155816081718120
:1005B000BFD38C0142E050E06FE372E0CE01B8D3CC
:1005C000800F911FDF91CF911F910F910895EF92AE
:1005D000FF920F931F93CF93DF936115710511F471
:1005E00080E01BC041155105B9F07B01EC018C8105
:1005F0009D818A01080F191FB801CE0116D68823E4
:1006000079F3288139818C819D81B701820F931FF5
:100610000E94931A1D830C8381E0DF91CF911F917B
:100620000F91FF90EF900895EF92FF920F931F9319
:10063000CF93DF93CDB7DEB728970FB6F894DEBF20
:100640000FBECDBF7C01CB014AE08E010F5F1F4F73
:10065000B8010E94EF13F80101900020E9F73197EB
:10066000AF01401B510BB801C701B1DF28960FB68F
:10067000F894DEBF0FBECDBFDF91CF911F910F91D8
:10068000FF90EF90089541E050E062E472E09FCF68
:10069000EF92FF920F931F93CF93DF93CDB7DEB707
:1006A00064970FB6F894DEBF0FBECDBF7C01CB01BF
:1006B000BA018E010F5F1F4F22E044E00E94D01369
:1006C000FC0101900020E9F73197AF01481B590B5D
:1006D000BC01C7017CDF64960FB6F894DEBF0FBE85
:1006E000CDBFDF91CF911F910F91FF90EF900895B3
:1006F000CF93DF93EC01198218821B821A821D822C
:100700001C8260E070E091D52881398181110FC091
:100710002115310519F0C9010E941D19198218828D
:100720001D821C821B821A82DF91CF9108951D8247
:100730001C8261E472E0C901DF91CF910C94931A9D
:10074000CF93DF93282F30E0F901E35EFD4F8491D2
:10075000F901E352FD4FD491F901E956FD4FC491DF
:10076000CC2389F0811152DEEC2FF0E0EE0FFF1F59
:10077000ED59FD4FA591B491EC91ED2381E090E00E
:1007800021F480E002C080E090E0DF91CF910895F5
:100790001F93CF93DF93282F30E0F901E35EFD4FE5
:1007A0008491F901E352FD4FD491F901E956FD4FCF
:1007B000C491CC23B9F0162F811128DEEC2FF0E084
:1007C000EE0FFF1FE358FD4FA591B4919FB7F8942A
:1007D000111104C08C91D095D82302C0EC91DE2B6E
:1007E000DC939FBFDF91CF911F910895CF93DF934B
:1007F00090E0FC01E352FD4F2491FC01E956FD4FCE
:100800008491882361F190E0880F991FFC01ED5FCE
:10081000FD4FC591D491FC01E358FD4FA591B491D2
:10082000611109C09FB7F89488812095822388833D
:10083000EC912E230BC0623061F49FB7F89488814D
:10084000322F309583238883EC912E2B2C939FBFDE
:1008500006C08FB7F894E8812E2B28838FBFDF91D5
:10086000CF910895863308F0865390917B00282F0E
:100870002870977F922B90937B0087708064809381
:100880007C0080917A00806480937A0080917A0065
:1008900086FDFCCF809178002091790090E0922B2A
:1008A00008953FB7F8948091800290918102A091C1
:1008B0008202B091830226B5A89B05C02F3F19F094
:1008C0000196A11DB11D3FBFBA2FA92F982F8827D0
:1008D000820F911DA11DB11DBC01CD0142E0660F2B
:1008E000771F881F991F4A95D1F70895CF92DF92FD
:1008F000EF92FF92CF93D5DFC0902A04D0902B04C3
:10090000E0902C04F0902D04DC01CB018C199D09A2
:10091000AE09BF0980932E0490932F04A093300456
:10092000B0933104BEDF60932A0470932B0480934C
:100930002C0490932D0410924004C0E0C12CD12CC3
:1009400076018091D30390E047962C2F30E08217F8
:100950009307D4F061E08091D1031ADFC83170F4BD
:100960008091D203EDDECC0CDD1CEE1CFF1C882335
:1009700029F08FEFC81AD80AE80AF80A60E08091D7
:10098000D10306DFCF5FDDCF80E8E8268091280421
:100990009091290420914604309147042F5F3F4FE6
:1009A0008217930729F4109229041092280405C095
:1009B00001969093290480932804C114D104E10482
:1009C000F10409F43FC0809140048F5F809340049C
:1009D000E0912804F0912904EE0FFF1FEE0FFF1F96
:1009E000EF52FC4FC782D086E186F28680913604B2
:1009F000882341F180913304823120F48F5F80930A
:100A0000330420C059DDDC01CB010090340404C064
:100A1000B595A795979587950A94D2F78093240466
:100A200090932504A0932604B093270410923304D6
:100A30001092360481E080934104809140048F5FDE
:100A400080934004CF91FF90EF90DF90CF90089576
:100A50008F929F92AF92BF92CF92DF92EF92FF92CE
:100A60006B017C011EDF4B015C01C114D104E10468
:100A7000F104E9F016DFDC01CB0188199909AA0914
:100A8000BB09883E9340A105B10578F321E0C21A65
:100A9000D108E108F10888EE880E83E0981EA11CB9
:100AA000B11CC114D104E104F10421F7DECFFF90A1
:100AB000EF90DF90CF90BF90AF909F908F90089570
:100AC0002FB7F89460917C0270917D0280917E0234
:100AD00090917F022FBF0895CF92DF92EF92FF9205
:100AE0000F931F93CF93DF93CDB7DEB7C054D140A0
:100AF0000FB6F894DEBF0FBECDBFE2DF0091C70393
:100B00001091C8032091C9033091CA036B017C0185
:100B1000C01AD10AE20AF30A40EDC41647E0D4062F
:100B2000E104F10418F48091CF03C0C06093C703BF
:100B30007093C8038093C9039093CA031092C203B1
:100B40001092C1031092C0031092BF031092BE0313
:100B500062E08091C3034ADE61E070E080E090E0F3
:100B600077DF61E08091C30341DE60E08091C303E1
:100B70000FDE8091C4038551823028F48BE291E12D
:100B80000197F1F705C064E170E080E090E060DF7C
:100B900062E08091C3032ADE8091D00390E082302E
:100BA000910538F0880F991F880F991F05970197B5
:100BB000F1F7F89480E0EADB6F3F7F4F8F4F9F4F54
:100BC00021F41092CF0378943EC081E0DFDB6F3FC9
:100BD0007F4F8F4F9F4FA9F38E010F5F1F4F6E0105
:100BE0002FEBC21A2EEFD20A780180E0CFDBF7019B
:100BF000608371838283938381E0C8DBF701648320
:100C0000758386839783F8E0EF0EF11CEC14FD04E6
:100C100061F7789420E030E0F801C080D180E28074
:100C2000F3804481558166817781FFEFCF16DF061F
:100C3000EF06FF0631F04F3F8FEF58076807780740
:100C400021F41092CF0380E031C0F90183E0F595E3
:100C5000E7958A95E1F7E254FC4F8081880FC4162E
:100C6000D506E606F70608F4816080832F5F3F4FC4
:100C7000085F1F4F2832310579F62091C20330E01A
:100C80004091BE038091BF0390E0840F911D40917D
:100C9000C003840F911D4091C103840F911D9927BA
:100CA0002817390771F681E08093CF03C05CDE4FCF
:100CB0000FB6F894DEBF0FBECDBFDF91CF911F916D
:100CC0000F91FF90EF90DF90CF9008950F931F93B7
:100CD000F7DE60938C0270938D0280938E02909366
:100CE0008F0284E892E05DD097FF1EC0E9DE00919C
:100CF0008C0210918D0220918E0230918F02DC01C6
:100D0000CB01801B910BA20BB30B009188021091B9
:100D1000890220918A0230918B0280179107A207E5
:100D2000B307F8F28FEF9FEF1F910F910895089589
:100D3000CF92DF92EF92FF920F931F93CF93DF93A7
:100D40006C017A018B01C0E0D0E0CE15DF0581F0A7
:100D5000D8016D918D01D601ED91FC910190F0814A
:100D6000E02DC6011995892B11F02196EECF7E0159
:100D7000C701DF91CF911F910F91FF90EF90DF900E
:100D8000CF900895FC01538D448D252F30E0842FA2
:100D900090E0821B930B541710F0CF9608950197A3
:100DA0000895FC01918D828D981761F0828DDF018D
:100DB000A80FB11D5D968C91928D9F5F9F73928F4E
:100DC00090E008958FEF9FEF0895FC01918D828D43
:100DD000981731F0828DE80FF11D858D90E0089510
:100DE0008FEF9FEF0895FC01918D228D892F90E068
:100DF000805C9F4F821B91098F739927089584E827
:100E000092E0F1DF21E0892B09F420E0822F0895A0
:100E100081E293E0E8DF21E0892B09F420E0822FD2
:100E20000895FC01848DDF01A80FB11DA35ABF4FA7
:100E30002C91848D90E001968F739927848FA689D9
:100E4000B7892C93A089B1898C91837080648C932D
:100E5000938D848D981306C00288F389E02D8081DC
:100E60008F7D80830895EF92FF920F931F93CF930E
:100E7000DF93EC0181E0888F9B8D8C8D981305C0EA
:100E8000E889F989808185FD25C0F62E0B8D10E05B
:100E90000F5F1F4F0F731127E02E8C8DE8120BC0D0
:100EA0000FB607FCFACFE889F989808185FFF5CF75
:100EB000CE01B7DFF2CF8B8DFE01E80FF11DE35AB3
:100EC000FF4FF0829FB7F8940B8FEA89FB898081EE
:100ED00080620AC09FB7F894EE89FF896083E88931
:100EE000F98980818370806480839FBF81E090E076
:100EF000DF91CF911F910F91FF90EF900895CF93C5
:100F0000DF93EC01888D8823C1F0EA89FB89808119
:100F100085FD05C0A889B9898C9186FD0EC00FB6E4
:100F200007FCF5CF808185FFF2CFA889B9898C9124
:100F300085FFEDCFCE0175DFE8CFDF91CF9108952A
:100F400080E090E0892B19F063DF811120C080E000
:100F500090E0892B19F053DF81111CC080E090E0F4
:100F6000892B41F080E090E0892B21F00E94000065
:100F7000811113C080E090E0892BA1F080E090E027
:100F8000892B81F00E94000081110AC008950E94FF
:100F90000000DDCF0E940000E1CF0E940000EACFF8
:100FA0000C940000089520912F05309130052817EA
:100FB000390771F490912E0580912D05981741F015
:100FC000E0912E05F0E0E351FB4F808190E0089521
:100FD0008FEF9FEF089508951F93CF93DF93DC0168
:100FE0005C968D919C915D97009739F421E030E0FB
:100FF00013963C932E9312973BC05196ED91FC9122
:10100000529750962C915097322F30951FB75E967D
:101010004C915E97742F727041FD6095F8944081F9
:10102000772311F0422B01C043234083EC01219729
:10103000F1F748E0508160FF02C0522B01C05323FA
:101040005083EC012197F1F76695415099F7808123
:10105000772319F08323808302C0282B20831FBFAE
:101060005C968D919C915D970197F1F781E090E0FE
:10107000DF91CF911F91089520912F053091300578
:101080002817390769F480912D0520912E0590E0ED
:10109000805C9F4F821B910960E470E00C946A1899
:1010A00080E090E0089520912F05309130052817B9
:1010B0003907B9F490912E0580912D05981789F084
:1010C000E0912E05F0E0E351FB4F808120912E0549
:1010D00030E02F5F3F4F2F73332720932E0590E092
:1010E00008958FEF9FEF089585ED8093BC00809168
:1010F000BC0084FDFCCF1092C70408954091A30466
:10110000262F30E0240F311D21323105DCF42091EF
:10111000C7042430C9F4FC0180E090E0861758F43D
:101120003091A3042191DC01AD57BB4FA30FB11D3A
:101130002C930196F3CF8091A304680F6093A304CE
:1011400080E0089581E0089582E008958FEF9FEF99
:1011500008958FEF9FEF08958091820490E091951C
:10116000819591090895CF93DF93CB01EA01642F14
:10117000C5DFCE01DF91CF910895CF93DF931F920A
:10118000CDB7DEB7698361E0CE010196B7DF81E0BC
:1011900090E00F90DF91CF91089580E090E0089566
:1011A0000E94861A9091000289133DC0E2E0F2E0AD
:1011B000E4919FEF90930002E230C9F050F4EE23E7
:1011C00099F0E13081F590916F009D7F90936F00D1
:1011D0002AC0E43019F1E0F0E53029F59091730070
:1011E0009D7F909373001FC010926E001CC0909161
:1011F00070009D7F9093700091E09093B00090916B
:10120000B100987F94609093B1001092B3000BC02E
:10121000909171009D7F9093710005C09091720034
:101220009D7F9093720060E0B3CA0F931F93CF939A
:10123000DF93EC0188819981009729F02A813B8115
:101240002617370788F48B016F5F7F4F0E94A6191E
:10125000009761F0998388831B830A832C813D81E9
:10126000232B11F4FC01108281E001C080E0DF91AA
:10127000CF911F910F9108951F920F920FB60F9269
:1012800011240BB60F922F933F934F935F936F935D
:101290007F938F939F93AF93BF93EF93FF9380912F
:1012A000470290914802A0914902B0914A02892BCD
:1012B0008A2B8B2B51F190914402E0914502F091E1
:1012C000460280818927808380914702909148025D
:1012D000A0914902B0914A02181619061A061B0677
:1012E000BCF48091470290914802A0914902B091CC
:1012F0004A020197A109B1098093470290934802DD
:10130000A0934902B0934A0203C0809100024ADFD1
:10131000FF91EF91BF91AF919F918F917F916F91CD
:101320005F914F913F912F910F900BBE0F900FBE89
:101330000F901F9018951F920F920FB60F921124C5
:101340000BB60F922F933F934F935F936F937F93BF
:101350008F939F93AF93BF93EF93FF9384E892E0B3
:1013600060DDFF91EF91BF91AF919F918F917F9140
:101370006F915F914F913F912F910F900BBE0F9006
:101380000FBE0F901F9018951F920F920FB60F92DD
:1013900011240BB60F922F938F939F93EF93FF938C
:1013A000E0919402F09195028081E0919A02F0918F
:1013B0009B0282FD12C0908180919D028F5F8F738E
:1013C00020919E02821751F0E0919D02F0E0EC57CF
:1013D000FD4F958F80939D0201C08081FF91EF9119
:1013E0009F918F912F910F900BBE0F900FBE0F907A
:1013F0001F9018951F920F920FB60F9211240BB6E3
:101400000F922F933F934F935F936F937F938F939D
:101410009F93AF93BF93EF93FF9381E293E001DD3E
:10142000FF91EF91BF91AF919F918F917F916F91BC
:101430005F914F913F912F910F900BBE0F900FBE78
:101440000F901F9018951F920F920FB60F921124B4
:101450000BB60F922F938F939F93EF93FF93E0918F
:101460003103F09132038081E0913703F09138032A
:1014700082FD12C0908180913A038F5F8F7320911B
:101480003B03821751F0E0913A03F0E0EF5DFC4F2F
:10149000958F80933A0301C08081FF91EF919F91D6
:1014A0008F912F910F900BBE0F900FBE0F901F903A
:1014B00018951F920F920FB60F9211240BB60F9230
:1014C0002F933F934F935F936F937F938F939F934C
:1014D000AF93BF93EF93FF93E0912F05F091300509
:1014E000309709F451C0968DA685B785858591FF03
:1014F00004C09C91892329F447C09C91892309F059
:1015000043C0A389B4899C918589809589238C9354
:10151000868997890197F1F7608D718DA685B785CA
:10152000558538E020E0CB010197F1F7822F90E05C
:1015300095958795282F4C91452309F020683150C7
:1015400091F7868D81FD209580912D0590E0019683
:101550008F73992730912E05381749F0A0912D05EA
:10156000B0E0A351BB4F2C9380932D0503C0868D13
:101570008160868F828D938D0197F1F7A389B4895D
:101580009C918589892B8C93FF91EF91BF91AF91AD
:101590009F918F917F916F915F914F913F912F918B
:1015A0000F900BBE0F900FBE0F901F9018951F92BB
:1015B0000F920FB60F9211240BB60F922F933F93F9
:1015C0004F935F936F937F938F939F93AF93BF934B
:1015D000EF93FF938091B900887F803609F49CC017
:1015E00068F5883209F45BC090F4803109F454C086
:1015F00038F4882309F4F2C0883009F44DC0F1C0F2
:10160000883109F44CC0803209F45DC0EAC08034EE
:1016100009F468C048F4803309F455C0883309F0F0
:10162000E0C08093C604D4C0803509F44FC088352B
:1016300009F45DC0883409F0D4C0D2C0883909F4F7
:10164000C3C0A8F4883709F467C038F4883609F4B1
:1016500063C0803709F460C0C4C0883809F4B4C0DE
:10166000803909F45FC0803809F0BBC05BC0803BA3
:1016700009F484C038F4803A09F466C0883A09F461
:101680007DC0AFC0803C09F4A3C0883C09F4A0C071
:10169000883B09F486C0A5C08091EC0410C09091ED
:1016A000EB048091EA04981770F5E091EB0481E077
:1016B0008E0F8093EB04F0E0E653FB4F8081809324
:1016C000BB0085EC82C08093C6048AC0E091EB0425
:1016D00081E08E0F8093EB048091BB00F0E0E65335
:1016E000FB4F80839091EB048091EA046AC0E09103
:1016F000EB0481E08E0F8093EB048091BB00F0E05F
:10170000E653FB4F80838091C904811169C081E059
:101710008093C80484EA5DC083E08093C70410927C
:10172000C504CFCF8091C504803208F04DC0E09150
:10173000C50481E08E0F8093C5048091BB00F0E06A
:10174000EB55FB4F8083BDCF85EC8093BC0010929E
:10175000C7048091C504803230F4E091C504F0E004
:10176000EB55FB4F10826091C50470E085EA94E070
:10177000E0E0F0E019951092C50433C084E0809356
:10178000C7041092A4041092A304E0E0F0E01995BD
:101790008091A304811105C081E08093A30410927D
:1017A0008304E091A40481E08E0F8093A404F0E010
:1017B000ED57FB4F80818093BB009091A4048091F2
:1017C000A304981708F47DCF85E88093BC0009C076
:1017D00085EC8093BC001092C70403C01092C6042D
:1017E00083DCFF91EF91BF91AF919F918F917F919A
:1017F0006F915F914F913F912F910F900BBE0F9082
:101800000FBE0F901F9018951092500260E08AE072
:101810000E94C80310924F0210924C0210924B0289
:1018200087E0C0CC1F920F920FB60F9211242F9316
:101830003F938F939F93AF93BF9380917C0290913E
:101840007D02A0917E02B0917F023091310523E0AC
:10185000230F2D3720F40196A11DB11D05C026E8E8
:10186000230F0296A11DB11D2093310580937C02A8
:1018700090937D02A0937E02B0937F0280918002BC
:1018800090918102A0918202B09183020196A11DE4
:10189000B11D8093800290938102A0938202B09345
:1018A0008302BF91AF919F918F913F912F910F90A4
:1018B0000FBE0F901F901895CF93DF93CDB7DEB773
:1018C00068970FB6F894DEBF0FBECDBF789484B58D
:1018D000826084BD84B5816084BD85B5826085BD2C
:1018E00085B5816085BD80916E00816080936E00BA
:1018F00010928100809181008260809381008091AC
:10190000810081608093810080918000816080935C
:1019100080008091B10084608093B1008091B0001C
:1019200081608093B00080919100826080939100EB
:1019300080919100816080939100809190008160FE
:10194000809390008091A10082608093A10080919B
:10195000A10081608093A1008091A00081608093AC
:10196000A00080912101826080932101809121015A
:10197000816080932101809120018160809320010A
:1019800080917A00846080937A0080917A008260EE
:1019900080937A0080917A00816080937A008091B0
:1019A0007A00806880937A001092C100E091310340
:1019B000F091320322E02083E0912D03F0912E0379
:1019C0001082E0912F03F09130038FEC808310920E
:1019D0003903E0913503F091360396E09083E0916E
:1019E0003303F0913403808180618083E09133037D
:1019F000F0913403808188608083E0913303F0911B
:101A00003403808180688083E0913303F091340354
:101A100080818F7D8083E0919402F09195022083F4
:101A2000E0919002F091910211E01083E091920216
:101A3000F091930280EA808310929C02E0919802D8
:101A4000F09199029083E0919602F0919702808143
:101A500080618083E0919602F09197028081886096
:101A60008083E0919602F091970280818068808364
:101A7000E0919602F091970280818F7D808361E0F2
:101A80008091D1030E94F60360E08091D2030E940E
:101A9000F6031093D30360E08091D1030E94C80342
:101AA0000FD8603679408105910558F40E945C0298
:101AB000609348047093490480934A0490934B04C4
:101AC000EFCF81E0809336041092330410924404E7
:101AD0000E94600520914204309143046B017C0117
:101AE000C20ED31EE11CF11C8091D2030E94A00300
:101AF000811103C00E94760402C01092400410912C
:101B0000400480914504882319F0123069F70AC017
:101B10000E946005C616D706E806F906B0F781E010
:101B2000809344041092410480E090E0A1E6B4E484
:101B30008093D4039093D503A093D603B093D70397
:101B400061E08AE00E94F60361E089E00E94F6030A
:101B500061E088E00E94F60360E08AE00E94C8032A
:101B600061E08DE00E94F60362E08091C3030E9471
:101B7000F6030E946005DC01CB01805D9740A1095E
:101B8000B1098093C7039093C803A093C903B0938E
:101B9000CA0387E38093D003F8E32F2E312C44242B
:101BA0004A94542C3201BEE9EB2EB2E0FB2E14EE27
:101BB000C12E12E0D12ECE010D960E947803CE01E7
:101BC00007960E9478038091D2030E94A00381119E
:101BD00003C00E94760402C0109240040E945C027E
:101BE000609348047093490480934A0490934B0493
:101BF000DC01CB010090340404C0B595A7959795FE
:101C000087950A94D2F7009124041091250420911D
:101C1000260430912704BC01CD01601B710B820B9F
:101C2000930B0E9472162091D4033091D5034091FA
:101C3000D6035091D7030E94EA1720E030E040E23B
:101C400051E40E94D11660937202709373028093E4
:101C500074029093750264E670E080E090E00E9468
:101C600028050E946C05882309F46EC08091C40386
:101C70008C3009F445C018F48B30D1F065C0855123
:101C8000823008F061C01091C003612F6F7770E05F
:101C9000762F66278091C103682B80E090E00E9438
:101CA00070162DEC3CEC4CEC5DE30E94D11648C064
:101CB0006091C00370E080E090E00E9470164B01DC
:101CC0005C011091C10317FF0AC09B01AC0160E0E9
:101CD00070E080E89FEB0E9485174B015C01612F4B
:101CE0006F7070E080E090E0FDD72DEC3CEC4CECA8
:101CF0005DE30E94D116A50194010E94861728C0B9
:101D00001091C0036091C1036F7070E080E090E0BB
:101D1000E9D72DEC3CEC4CEC5DE30E94D1166D8BC9
:101D20007E8B8F8B988F612F70E080E090E0D8D70A
:101D30009B01AC016D897E898F89988D0E948617E1
:101D400017FF06C0905804C060E070E080EC9FE789
:101D5000609378027093790280937A0290937B0269
:101D600087E30E9432048C0180910102909102026B
:101D7000B801681B790B77FF03C0719561957109F4
:101D8000072E000C880B990BADD72EE135E845EFF7
:101D900051E40E94521887FD04C010930202009380
:101DA000010280915102882311F061E001C060E0DE
:101DB00088E00E94C80386E30E94320424E6AC0156
:101DC000249FC001259F900D112497FF02C08150D0
:101DD0009C4F292F25952595392F330F330B3093A1
:101DE0007702209376022430310524F081E080933D
:101DF000510202C01092510280914E04882329F0B2
:101E000061E080914C040E94F60360E080914C04F4
:101E10000E94C80383E090E00197F1F761E08091B0
:101E20004C040E94C80383E290E00197F1F760E060
:101E300080914C040E94C80380914E04882329F0AD
:101E400060E080914C040E94F6030E94510460936C
:101E50004F047093500480935104909352048091E6
:101E60004D040E94A003892BE9F40E9451040091C3
:101E70004F04109150042091510430915204DC0120
:101E8000CB01801B910BA20BB30B0091530410915B
:101E900054042091550430915604081719072A0755
:101EA0003B07E8F60E94510460934F04709350047E
:101EB000809351049093520480914D040E94A0039A
:101EC000892BE9F00E94510400914F0410915004B5
:101ED0002091510430915204DC01CB01801B910B05
:101EE000A20BB30B0091530410915404209155049C
:101EF00030915604081719072A073B07E8F60E9495
:101F0000510420914F0430915004CB01821B930B5C
:101F1000B1010E9456188B0170936F0260936E029C
:101F20006431710510F461E001C060E08DE00E9451
:101F3000C80380915002882331F00531110508F45F
:101F400010C262DC0EC2809154028823C9F00431B1
:101F5000110558F40E9460052091520230915302FD
:101F6000621B730B6D3A7D4024F11092540260E0C5
:101F700089E00E94C803109253021092520219C0C5
:101F800004311105B0F40E94600570935302609310
:101F9000520281E08093540261E089E00E94C8030C
:101FA00080917002909171020196909371028093DA
:101FB000700280914F02882309F4C7C104311105D2
:101FC00008F0B8C10E94600520914B0230914C028C
:101FD000621B730B693873410CF4C3C181E08093B9
:101FE000500261E08AE00E94C803809100028730BD
:101FF00021F08F3F09F097C104C0E2E0F2E01491B4
:10200000DCC087E080930002E2E0F2E014911F3F21
:1020100009F489C1123009F469C038F5112309F4B3
:102020004DC0113009F0C9C010928000109281009B
:10203000809181008860809381008091810081601F
:1020400080938100F7018491E82FF0E0EE0FFF1FED
:10205000E358FD4F85919491F60184918093580245
:1020600061E087E00E94F603D1C0143009F484C017
:1020700008F461C0153009F0A0C010922001109240
:1020800021018091210188608093210180912101AB
:10209000816080932101F7018491E82FF0E0EE0F39
:1020A000FF1FE358FD4F85919491F6018491809331
:1020B000550261E087E00E94F603D6C014BC15BC4F
:1020C00084B5826084BD85B5816085BDF70184914A
:1020D000E82FF0E0EE0FFF1FE358FD4F859194913C
:1020E000F60184918093590210E069C01092B0000B
:1020F0001092B1008091B00082608093B000809116
:10210000B10081608093B100F7018491E82FF0E085
:10211000EE0FFF1FE358FD4F859194919093460277
:1021200080934502F60184918093440261E087E048
:102130000E94F60361C0109290001092910080916D
:1021400091008860809391008091910081608093DC
:102150009100F7018491E82FF0E0EE0FFF1FE358A4
:10216000FD4F85919491F60184918093570261E02F
:1021700087E00E94F60366C01092A0001092A100B2
:102180008091A10088608093A1008091A10081606E
:102190008093A100F7018491E82FF0E0EE0FFF1F7C
:1021A000E358FD4F85919491F601849180935602F6
:1021B00061E087E00E94F6034EC017FDB4C061E005
:1021C00087E00E94F603112319F01230A9F01CC019
:1021D00085B5887F836085BD8CE787BD40926A02A4
:1021E00050926B0260926C0270926D0280916E0050
:1021F000826080936E0097C08091B100887F836079
:102200008093B10089EF44C01130D1F480918100F6
:10221000887F8160809381004FE35FE15093890064
:102220004093880040926602509267026092680272
:102230007092690280916F00826080936F0073C01A
:10224000133039F480919100887F816080939100F0
:102250002FC0143039F48091A100887F8160809371
:10226000A1003AC0153039F480912101887F816046
:102270008093210145C01330D9F02CF4123009F0BD
:1022800052C08FE305C0143039F11530C9F14BC08D
:102290008093B300409247025092480260924902F4
:1022A00070924A02809170008260809370003BC0FF
:1022B0008FE39FE19093990080939800409262028F
:1022C0005092630260926402709265028091710084
:1022D00082608093710027C0EFE3FFE1F093A900D3
:1022E000E093A80040925E0250925F02609260020A
:1022F000709261028091720082608093720013C0BC
:102300004FE35FE1509329014093280140925A0224
:1023100050925B0260925C0270925D028091730049
:1023200082608093730080916E0290916F02459756
:10233000C4F007CE60E08AE00E94C80310924F020A
:1023400010924C0210924B020CC00431110548F45B
:1023500081E080934F020E94600570934C0260936D
:102360004B0284E892E00E94F306181619060CF05E
:10237000A1C0CE0101960E9478030E94660697FDD7
:102380000FC08A30910561F08B8B1C8A41E050E0D0
:10239000BE016D5E7F4FCE0101960E94E702EDCF38
:1023A0008F8198850097A1F069817A816115710507
:1023B00071F049855A852D813E814217530738F0C7
:1023C0000E94931A8D819E819C878B870FC035D781
:1023D00089819A8198878F838B819C819A8789874D
:1023E0008D819E819C878B871A82198289819A812F
:1023F00024D7409178025091790260917A027091CD
:102400007B02CE010D960E944803CE010D960E94DC
:1024100043036091760270917702CE010D960E947F
:102420001403CE010D960E94430360910102709146
:102430000202CE010D960E941403CE010D960E9459
:102440004303409172025091730260917402709143
:102450007502CE010D960E944803CE010D960E9492
:1024600043036091700270917102CE010D960E943B
:102470001403CE010D960E9443036091500270E058
:10248000CE010D960E9414034B855C856F81788583
:1024900081E293E00E949806BE01635F7F4F81E274
:1024A00093E00E94CE02BE01635F7F4F84E892E01A
:1024B0000E94CE028F819885C0D68D859E85BDD61F
:1024C0000E94A00778CB109287021092860288EEB5
:1024D00093E0A0E0B0E08093880290938902A093FB
:1024E0008A02B0938B022DE032E030938502209374
:1024F00084024DEC50E050939102409390024CECDA
:1025000050E0509393024093920248EC50E0509375
:1025100095024093940249EC50E050939702409307
:1025200096024AEC50E050939902409398024EEC88
:1025300050E050939B0240939A0210929D02109299
:102540009E0210929F021092A002109224031092F9
:1025500023038093250390932603A0932703B0932E
:102560002803309322032093210325EC30E030939D
:102570002E0320932D0324EC30E03093300320937E
:102580002F0320EC30E0309332032093310321EC11
:1025900030E0309334032093330322EC30E0309367
:1025A00036032093350326EC30E030933803209334
:1025B000370310923A0310923B0310923C0310929F
:1025C0003D03109279041092780480937A049093DA
:1025D0007B04A0937C04B0937D042FE132E0309320
:1025E00077042093760410925A0410925904809331
:1025F0005B0490935C04A0935D04B0935E0481E35C
:1026000092E0909358048093570410926E041092B5
:102610006D041092700410926F0410927204109264
:1026200071041092740410927304609175046E7FAB
:102630006D7F609375046695617081E0682782E123
:102640000E94C80361E082E10E94F603EFEEF2E02F
:10265000E491E0936704E9EAF2E0E491F0E0EE0F40
:10266000FF1FE358FD4F85919491909369048093E7
:10267000680460E083E10E94F6038091750481FDA7
:1026800004C061E083E10E94C80383E18093630496
:10269000E0EFF2E0E491E0936404EAEAF2E0E4912E
:1026A000F0E0EE0FFF1FED59FD4F8591949190934F
:1026B00066048093650410924E0483E080934C047A
:1026C00082E080934D0461E083E00E94F60360E0C5
:1026D00080914D040E94F60380E29EE4A0E0B0E009
:1026E0008093530490935404A0935504B0935604DC
:1026F000109229041092280481E08093320484E02F
:1027000080933404809335042CE83AE030934304FA
:10271000209342041092450420E130E030934704B6
:10272000209346048093D20385E08093D10386E111
:102730008093C3038BE08093C403E3EFF2E0E49162
:10274000E093C503EDEAF2E0E491E093C60380E88C
:102750009EE3A0E0B0E08093CB039093CC03A093E2
:10276000CD03B093CE03089581E392E09093580493
:102770008093570480912F059091300587559440A0
:1027800071F4E0916A04F0916B04908180916C0483
:102790008095892380831092300510922F0508952B
:1027A000EF920F931F93CF93DF93E80147FD02C091
:1027B00034E001C034E1042E000C550B57FF03C078
:1027C000519541955109E32E022F242FAE012AD0B5
:1027D000CE01DF91CF911F910F91EF900895BB270C
:1027E0004A3031F4992322F4BDE2909581959F4FB0
:1027F00001C0BB27FB015527AA27880F991FAA1FD5
:10280000A41710F0A41B83955051B9F7A05DAA330B
:1028100008F0A95DA193009779F7B111B1931192D6
:10282000CB014EC28F929F92AF92BF92CF92DF9216
:10283000EF92FF920F931F93CF93DF93CDB7DEB745
:1028400029970FB6F894DEBF0FBECDBF6A01122FD5
:10285000B02E2BE3201720F0FF24F394F00E02C0DB
:102860002CE3F22E0F2D27E0AE014F5F5F4F50D1CA
:10287000BC014981842F8970813031F0E1FC06C0B0
:10288000E0FE06C090E205C09DE203C09BE201C0ED
:1028900090E05E2D507143FF3CC0911102C083E077
:1028A00001C084E0811718F4212F281B01C020E00B
:1028B00051110BC0F601822F30E2882319F03193B9
:1028C0008150FBCFC20ED11C20E0992329F0D60104
:1028D0009C93F60131966F01C6010396E2FE0AC091
:1028E0003EE4D6013C9341E411964C931197129625
:1028F0003C9306C03EE6F601308341E641833283D5
:10290000FC01322F40E2332309F442C0419331509D
:10291000FACF42FF44C0911102C083E001C084E0BD
:10292000811718F4212F281B01C020E051110BC082
:10293000F601822F30E2882319F031938150FBCFCA
:10294000C20ED11C20E0992329F0D6019C93F601F8
:1029500031966F01C6010396E2FE0BC039E4D60141
:102960003C933EE411963C93119736E412963C93C7
:1029700007C039E6F60130833EE6318336E632831E
:10298000FC01322F40E2332319F041933150FBCF49
:10299000FC01E20FF11D10828EEF9FEFA6C021E037
:1029A00030E0911102C020E030E0161617061CF44A
:1029B000FB01319602C0E1E0F0E02E0F3F1FBB208B
:1029C00021F0EB2DF0E0319602C0E0E0F0E02E0FB8
:1029D0003F1FE12FF0E02E173F071CF4121B212FA1
:1029E00001C020E08E2D887159F4F601822F30E26B
:1029F000882319F031938150FBCFC20ED11C20E007
:102A0000992329F0D6019C93F60131966F0151115B
:102A10000BC0F601822F90E3882319F09193815027
:102A2000FBCFC20ED11C20E00F2D060F9A81342F50
:102A3000307144FF03C0913309F40150101624F49F
:102A4000093018F008E001C001E0AB0177FF02C0D7
:102A500040E050E0FB01E41BF50BA1E0B0E0AC0F5F
:102A6000BD1FEA0FFB1F8EE2A82E4B01801A9108B2
:102A70000B2D10E01195019511094F3FBFEF5B073A
:102A800021F4D601AC9211966D01641775072CF0F4
:102A90008416950614F4818101C080E341505109E8
:102AA0003196D60111967D014017510724F0D601C9
:102AB0008C936701E2CF6417750739F4963320F4DD
:102AC000953319F4311101C081E3F6018083F701D8
:102AD000822F90E2882319F091938150FBCFF70168
:102AE000E20FF11D108280E090E029960FB6F89475
:102AF000DEBF0FBECDBFDF91CF911F910F91FF9031
:102B0000EF90DF90CF90BF90AF909F908F900895FF
:102B1000283008F027E03327DA01990F311D87FDAF
:102B2000916000966105710539F432602E5F3D9326
:102B300030E32A95E1F708959F3F30F08038710522
:102B4000610509F03C5F3C5F3D93913008F080687F
:102B5000911DDF93CF931F930F93FF92EF92192F45
:102B6000987F9695E92F96959695E90FFF27EE5950
:102B7000FE4F99273327EE24FF24A701E701059094
:102B80000894079428F4360FE71EF81E491F511DBC
:102B9000660F771F881F991F0694A1F70590079469
:102BA00028F4E70EF81E491F561FC11D770F881F16
:102BB000991F661F0694A1F70590079428F4F80E54
:102BC000491F561FC71FD11D880F991F661F771FEA
:102BD0000694A1F70590079420F4490F561FC71FCC
:102BE000D81F990F661F771F881F0694A9F7849135
:102BF0001095177041F0D695C79557954795F7945E
:102C0000E7941A95C1F7E8E0F1E068941590159102
:102C100035916591959105907FE27395E118F10AE0
:102C2000430B560BC90BD009C0F7E10CF11E431F33
:102C3000561FC91FD01D7EF4703311F48A95E6CF5C
:102C4000E894015030F0080F0AF40027021708F446
:102C5000202F2395022F7A3328F079E37D932A954C
:102C6000E9F710C07D932A9589F6069497956795A4
:102C7000379517951794E118F10A430B560BC90BBA
:102C8000D00998F023957E9173957A3308F070E31C
:102C90007C932013B8F77E9170617D9330F083951B
:102CA00071E37D9370E32A95E1F71124EF90FF9093
:102CB0000F911F91CF91DF91992787FD90950895EE
:102CC000DC01FC01672F71917723E1F7329704C093
:102CD0007C916D9370836291AE17BF07C8F308951E
:102CE000E89409C097FB3EF49095809570956195A6
:102CF0007F4F8F4F9F4F9923A9F0F92F96E9BB275C
:102D00009395F695879577956795B795F111F8CFD7
:102D1000FAF4BB0F11F460FF1BC06F5F7F4F8F4F42
:102D20009F4F16C0882311F096E911C0772321F038
:102D30009EE8872F762F05C0662371F096E8862FD0
:102D400070E060E02AF09A95660F771F881FDAF727
:102D5000880F9695879597F90895990F0008550F54
:102D6000AA0BE0E8FEEF16161706E807F907C0F011
:102D700012161306E407F50798F0621B730B840B19
:102D8000950B39F40A2661F0232B242B252B21F4F3
:102D900008950A2609F4A140A6958FEF811D811D93
:102DA00008950BD078C069D028F06ED018F0952324
:102DB00009F05AC05FC01124A2C07ED0A0F3959F35
:102DC000D1F3950F50E0551F629FF001729FBB2712
:102DD000F00DB11D639FAA27F00DB11DAA1F649FBE
:102DE0006627B00DA11D661F829F2227B00DA11D71
:102DF000621F739FB00DA11D621F839FA00D611DF7
:102E0000221F749F3327A00D611D231F849F600D17
:102E1000211D822F762F6A2F11249F5750408AF050
:102E2000E1F088234AF0EE0FFF1FBB1F661F771FDC
:102E3000881F91505040A9F79E3F510570F014C073
:102E40005EC05F3FECF3983EDCF38695779567951F
:102E5000B795F795E7959F5FC1F7FE2B880F911DFA
:102E60009695879597F9089597F99F6780E870E0A0
:102E700060E008959FEF80EC089500240A941616F0
:102E8000170618060906089500240A941216130658
:102E9000140605060895092E0394000C11F48823E6
:102EA00052F0BB0F40F4BF2B11F460FF04C06F5F02
:102EB0007F4F8F4F9F4F089557FD9058440F551FD8
:102EC00059F05F3F71F04795880F97FB991F61F0AC
:102ED0009F3F79F087950895121613061406551F23
:102EE000F2CF4695F1DF08C0161617061806991F8F
:102EF000F1CF86957105610508940895E894BB2784
:102F000066277727CB0197F908955058BB27AA2742
:102F10000ED0C1CFB2DF30F0B7DF20F031F49F3FE9
:102F200011F41EF4A7CF0EF4E095E7FB9DCFE92F37
:102F3000C3DF80F3BA17620773078407950718F099
:102F400071F49EF5DBCF0EF4E0950B2EBA2FA02D79
:102F50000B01B90190010C01CA01A0011124FF2746
:102F6000591B99F0593F50F4503E68F11A16F04041
:102F7000A22F232F342F4427585FF3CF4695379540
:102F80002795A795F0405395C9F77EF41F16BA0B05
:102F9000620B730B840BBAF09150A1F0FF0FBB1FB3
:102FA000661F771F881FC2F70EC0BA0F621F731FFC
:102FB000841F48F4879577956795B795F7959E3F59
:102FC00008F0B3CF9395880F08F09927EE0F9795E7
:102FD000879508950CD05FCF57DF40F04EDF30F07B
:102FE00021F45F3F19F040CF511189CF43CF64DF07
:102FF00098F39923C9F35523B1F3951B550BBB27C0
:10300000AA2762177307840738F09F5F5F4F220F6C
:10301000331F441FAA1FA9F333D00E2E3AF0E0E865
:1030200030D091505040E695001CCAF729D0FE2FB1
:1030300027D0660F771F881FBB1F26173707480743
:10304000AB07B0E809F0BB0B802DBF01FF279358F9
:103050005F4F2AF09E3F510568F006CF50CF5F3F8B
:10306000ECF3983EDCF3869577956795B795F795E1
:103070009F5FC9F7880F911D9695879597F90895D9
:10308000E1E0660F771F881FBB1F62177307840775
:10309000BA0720F0621B730B840BBA0BEE1F88F784
:1030A000E09508955ADE08F48FEF0895AA1BBB1B24
:1030B00051E107C0AA1FBB1FA617B70710F0A61B38
:1030C000B70B881F991F5A95A9F780959095BC0159
:1030D000CD01089597FB072E16F4009406D077FDD6
:1030E00008D0E4DF07FC05D03EF4909581959F4F12
:1030F0000895709561957F4F0895EE0FFF1F881F0B
:103100008BBF0790F691E02D19940F931F93CF93E7
:10311000DF938230910510F482E090E0E091340575
:10312000F091350520E030E0A0E0B0E0309719F1F3
:10313000408151810281138148175907C8F08417D3
:10314000950769F4109731F012960C931297139625
:103150001C9327C0009334051093350522C0211518
:10316000310519F04217530718F49A01BD01EF0118
:10317000DF01F801DBCF21153105F9F0281B390BF0
:103180002430310580F48A819B816115710521F01D
:10319000FB019383828304C09093350580933405AB
:1031A000FE01329644C0FE01E20FF31F819391931A
:1031B00022503109398328833AC020913205309159
:1031C0003305232B41F42091050230910602309300
:1031D000330520933205209103023091040221151A
:1031E000310541F42DB73EB74091070250910802D6
:1031F000241B350BE0913205F0913305E217F307FC
:10320000A0F42E1B3F0B2817390778F0AC014E5F56
:103210005F4F2417350748F04E0F5F1F509333055B
:10322000409332058193919302C0E0E0F0E0CF013A
:10323000DF91CF911F910F910895CF93DF93009766
:1032400009F481C0FC01329713821282A0913405E7
:10325000B0913505109781F420813181820F931F41
:1032600020913205309133052817390751F5F09335
:103270003305E093320567C0ED0120E030E0CE1762
:10328000DF0740F44A815B819E0141155105F1F051
:10329000EA01F5CFD383C28340815181840F951F0A
:1032A000C817D90759F488819981840F951F029610
:1032B000918380838A819B81938382832115310549
:1032C00029F4F0933505E09334053DC0E901FB8313
:1032D000EA8349915991C40FD51FEC17FD0761F49A
:1032E00080819181840F951F0296E90199838883DB
:1032F000828193819B838A83E0E0F0E012968D9136
:103300009C911397009719F0FD01DC01F7CF8D9187
:103310009C9111979D012E5F3F4F820F931F20912B
:103320003205309133052817390769F4309729F4AD
:10333000109235051092340502C013821282B093A8
:103340003305A0933205DF91CF9108956F927F925C
:103350008F929F92AF92BF92CF92DF92EF92FF92A5
:103360000F931F93CF93DF93009781F4CB01DF91ED
:10337000CF911F910F91FF90EF90DF90CF90BF9072
:10338000AF909F908F907F906F90BFCEFC01E60F23
:10339000F71F9C0122503109E217F30708F4A5C07A
:1033A000EC01D9010D911C91119706171707A8F090
:1033B0000530110508F497C0C801049786179707D0
:1033C00008F491C002501109061B170B01931193C9
:1033D0006D937C93CF0131DF86C05B01A01AB10AE7
:1033E0004C01800E911EA0913405B0913505612CE1
:1033F000712CE12CF12C109709F446C08D919C9111
:103400001197A815B905B1F56C0142E0C40ED11CA5
:10341000CA14DB0478F14C018A189B08640142E06D
:10342000C40ED11C1296BC9012971396AC91B5E0C5
:10343000CB16D10440F0B282A38391828082D9015D
:103440006D937C9309C00E5F1F4F800F911FF90190
:1034500091838083EB2DFA2FE114F10431F0D70131
:103460001396FC93EE9312973EC0F0933505E093CC
:10347000340539C06816790608F43C017D011296BE
:103480000D90BC91A02DB7CF80913205909133055E
:1034900088169906E1F466167706C8F4809103024F
:1034A00090910402009741F48DB79EB740910702B6
:1034B00050910802841B950BE817F907B0F4F093BC
:1034C0003305E0933205F901718360830CC0CB01B1
:1034D0001CDE7C01009749F0A801BE011BD0CE0183
:1034E000ACDEC70104C0CE0102C080E090E0DF91F5
:1034F000CF911F910F91FF90EF90DF90CF90BF90F1
:10350000AF909F908F907F906F90089581E090E0B2
:10351000F89410C0FB01DC0102C001900D924150F3
:103520005040D8F70895FB01DC0101900D92002076
:10353000E1F7089511E0C3E9D1E000E005C0802F74
:10354000FE01DBDD2196011DC439D10780E00807AB
:06355000B1F7F894FFCF73
:10355600FFFFFF00003605800000000000330798DB
:1035660006C2067F07F306D106E50600000000BD89
:1035760008B308CD08EB07AC08A908A608000000A8
:1035860000EC079806CD08EB073C085308D3070D57
:043596000A002C00FB
:00000001FF
